:100000000C942A000C9447000C9447000C94470071
:100010000C9447000C9447000C9447000C94470044
:100020000C9447000C9447000C9447000C94470034
:100030000C9447000C94DF070C9447000C94470085
:100040000C9447000C9447000C9447000C94470014
:100050000C94470011241FBECFE5D8E0DEBFCDBF12
:1000600013E0A0E6B0E0E2E5F6E702C005900D92ED
:10007000AC32B107D9F713E0ACE2B3E001C01D9296
:10008000A839B107E1F70E9430390C94273B0C9452
:100090000000EF92FF920F931F937B018C0120E0F1
:1000A00030E040E05FE40E94490388238CF0C801FF
:1000B000B70120E030E040E05FE40E94C1010E940F
:1000C000A9039B01AC01205030404040504806C07D
:1000D000C801B7010E94A9039B01AC01B901CA0183
:1000E0001F910F91FF90EF900895A0E0B0E0EBE733
:1000F000F0E00C94BF3ADC012B01FA019C919230A4
:1001000008F439C1EB018881823008F433C194309E
:1001100069F4843009F02FC111969C91119789815F
:10012000981709F428C1A4EAB2E025C1843009F483
:1001300021C18230A9F4923009F01DC19A01AD01AC
:1001400088E0EA010990AE01E90109929E0181501F
:10015000C1F7E201898111969C918923818308C1AD
:10016000923009F407C112962D903C901397EB0141
:100170008A819B811496AD90BD90CD90DC901797AD
:10018000EC80FD800E811F819101281B390BB90184
:1001900037FF04C066277727621B730B6032710537
:1001A0000CF061C0121613066CF537014801062EDB
:1001B00004C096948794779467940A94D2F721E0C8
:1001C00030E040E050E004C0220F331F441F551FB1
:1001D0006A95D2F721503040404050402E213F21B7
:1001E00040235123211531054105510521F021E01E
:1001F00030E040E050E079018A01E628F72808293C
:1002000019293CC0232BD1F1260E371E350146019A
:10021000062E04C096948794779467940A94D2F734
:1002200021E030E040E050E004C0220F331F441FC3
:10023000551F6A95D2F721503040404050402A2146
:100240003B214C215D21211531054105510521F04E
:1002500021E030E040E050E059016A01A628B728CB
:10026000C828D9280BC0821593052CF01C01AA249C
:10027000BB24650103C0EE24FF24870111969C91E5
:10028000D20111968C91981709F445C0992339F041
:10029000A80197012A193B094C095D0906C0A6016E
:1002A00095012E193F09400B510B57FD08C01182D3
:1002B0003382228224833583468357831DC081E0A5
:1002C00081833382228288279927DC01821B930B4A
:1002D000A40BB50B84839583A683B7830DC0220F2F
:1002E000331F441F551F24833583468357838281E0
:1002F000938101979383828324813581468157813D
:10030000DA01C9010197A109B1098F5F9F4FAF4F72
:10031000BF4328F30BC0918333822282EA0CFB1C7B
:100320000C1D1D1DE482F5820683178383E0808304
:10033000248135814681578157FF1AC0C901AA27F8
:1003400097FDA095BA2F81709070A070B0705695EF
:10035000479537952795822B932BA42BB52B848318
:100360009583A683B7838281938101969383828349
:10037000DF0101C0D201CD01CDB7DEB7E2E10C94BF
:10038000DB3AA0E2B0E0E7ECF1E00C94CB3A698311
:100390007A838B839C832D833E834F835887E9E048
:1003A000EE2EF12CEC0EFD1ECE010196B7010E943F
:1003B000D2048E010F5E1F4FCE010596B8010E9438
:1003C000D2048A8991E089278A8BC701B801AE01DE
:1003D000475E5F4F0E9475000E94FD03A096E6E015
:1003E0000C94E73AA0E2B0E0E8EFF1E00C94CB3AED
:1003F00069837A838B839C832D833E834F835887C5
:10040000F9E0EF2EF12CEC0EFD1ECE010196B701A6
:100410000E94D2048E010F5E1F4FCE010596B801D7
:100420000E94D204C701B801AE01475E5F4F0E942F
:1004300075000E94FD03A096E6E00C94E73AA0E266
:10044000B0E0E5E2F2E00C94BF3A69837A838B83F3
:100450009C832D833E834F835887CE010196BE0136
:10046000675F7F4F0E94D204CE010596BE016F5E8A
:100470007F4F0E94D2049985923088F0898982301A
:10048000C8F0943019F4823051F404C0843029F457
:10049000923081F484EA92E0C6C0923049F420E0C0
:1004A0009A858A89981321E02A87CE010996BBC0D4
:1004B000823049F420E09A858A89981321E02A8BBA
:1004C000CE014196B0C02D843E844F8458886D88FB
:1004D0007E888F88988CEE24FF248701AA24BB2471
:1004E000650140E050E060E070E0E0E0F0E0C10174
:1004F00081709070892BE9F0E60CF71C081D191D1E
:100500009A01AB012A0D3B1D4C1D5D1D80E090E062
:10051000A0E0B0E0E614F7040805190520F481E036
:1005200090E0A0E0B0E0BA01A901480F591F6A1F8E
:100530007B1FAA0CBB1CCC1CDD1C97FE08C081E0F5
:1005400090E0A0E0B0E0A82AB92ACA2ADB2A3196B6
:10055000E032F10549F0660C771C881C991C569412
:10056000479437942794C3CFFA85EA892B893C892D
:100570008B859C85280F391F2E5F3F4F17C0CA01FE
:1005800081709070892B61F016950795F794E79428
:1005900080E090E0A0E0B0E8E82AF92A0A2B1B2BC3
:1005A00076956795579547952F5F3F4F77FDE7CF36
:1005B0000CC0440F551F661F771F17FD4160EE0CDE
:1005C000FF1C001F111F21503040403090E05907A0
:1005D00090E0690790E4790760F32B8F3C8FDB0193
:1005E000CA018F779070A070B07080349105A1051A
:1005F000B10561F447FD0AC0E114F10401051105DC
:1006000029F0405C5F4F6F4F7F4F40781A8EFE1786
:1006100011F081E08A8F4D8F5E8F6F8F78A383E01A
:10062000898FCE0149960E94FD03A096E2E10C94C9
:10063000DB3AA8E1B0E0EFE1F3E00C94CB3A698358
:100640007A838B839C832D833E834F83588789E0F5
:10065000E82EF12CEC0EFD1ECE010196B7010E9492
:10066000D2048E010F5E1F4FCE010596B8010E9485
:10067000D2048985823040F08989823028F0C70110
:10068000B8010E944A0501C08FEF6896E6E00C941D
:10069000E73AA8E1B0E0EFE4F3E00C94CB3A6983E9
:1006A0007A838B839C832D833E834F83588789E095
:1006B000E82EF12CEC0EFD1ECE010196B7010E9432
:1006C000D2048E010F5E1F4FCE010596B8010E9425
:1006D000D2048985823040F08989823028F0C701B0
:1006E000B8010E944A0501C08FEF6896E6E00C94BD
:1006F000E73AA8E1B0E0EFE7F3E00C94CB3A698386
:100700007A838B839C832D833E834F83588789E034
:10071000E82EF12CEC0EFD1ECE010196B7010E94D1
:10072000D2048E010F5E1F4FCE010596B8010E94C4
:10073000D2048985823040F08989823028F0C7014F
:10074000B8010E944A0501C081E06896E6E00C9479
:10075000E73AACE0B0E0EFEAF3E00C94CF3A69831B
:100760007A838B839C83CE010196BE016B5F7F4FA2
:100770000E94D2048D81823061F1823050F1843048
:1007800021F48E81882351F12EC02F81388537FDC9
:1007900020C06E812F3131051CF06623F9F023C093
:1007A0008EE190E0821B930B29853A854B855C8511
:1007B00004C056954795379527958A95D2F76623B5
:1007C000B1F050954095309521953F4F4F4F5F4F79
:1007D0000EC020E030E040E050E009C02FEF3FEFD6
:1007E0004FEF5FE704C020E030E040E050E8B9019F
:1007F000CA012C96E2E00C94EB3ADF92EF92FF9262
:100800000F931F93FC01E480F58006811781D1804E
:100810008081823048F480E090E0A0E1B0E0E82AF6
:10082000F92A0A2B1B2BA5C0843009F49FC0823003
:1008300021F4EE24FF24870105C0E114F104010531
:10084000110519F4E0E0F0E096C0628173819FEF3A
:10085000623879070CF05BC022E83FEF261B370BAC
:100860002A3131052CF020E030E040E050E02AC091
:10087000B801A701022E04C0769567955795479554
:100880000A94D2F781E090E0A0E0B0E004C0880FC5
:10089000991FAA1FBB1F2A95D2F70197A109B10979
:1008A0008E219F21A023B1230097A105B10521F03E
:1008B00081E090E0A0E0B0E09A01AB01282B392B59
:1008C0004A2B5B2BDA01C9018F779070A070B07052
:1008D00080349105A105B10539F427FF09C0205CDA
:1008E0003F4F4F4F5F4F04C0215C3F4F4F4F5F4F13
:1008F000E0E0F0E02030A0E03A07A0E04A07A0E402
:100900005A0710F0E1E0F0E079018A0127C0603871
:10091000710564F5FB01E158FF4FD801C7018F77DE
:100920009070A070B07080349105A105B10539F4C4
:10093000E7FE0DC080E490E0A0E0B0E004C08FE3EB
:1009400090E0A0E0B0E0E80EF91E0A1F1B1F17FFA1
:1009500005C016950795F794E794319687E01695AC
:100960000795F794E7948A95D1F705C0EE24FF2404
:100970008701EFEFF0E06E2F679566276795902F60
:100980009F77D794DD24D7948E2F8695492F462BB9
:10099000582F5D29B701CA011F910F91FF90EF9069
:1009A000DF900895FC01DB01408151812281622F9B
:1009B0006F7770E0221F2227221F9381892F880FD3
:1009C000822B282F30E0991F9927991F11969C930D
:1009D000119721153105A9F54115510561057105DD
:1009E00011F482E037C082E89FEF13969C938E93B8
:1009F00012979A01AB0167E0220F331F441F551F66
:100A00006A95D1F783E08C930DC0220F331F441FEA
:100A1000551F12968D919C911397019713969C9355
:100A20008E931297203080E0380780E0480780E4FA
:100A3000580758F314962D933D934D935C93179755
:100A400008952F3F310579F4411551056105710570
:100A500019F484E08C93089564FF03C081E08C93C3
:100A600012C01C9210C02F57304013963C932E9307
:100A7000129783E08C9387E0440F551F661F771F02
:100A80008A95D1F7706414964D935D936D937C9322
:100A9000179708951F93DC01FB019C91923008F495
:100AA00047C08081823008F443C0943051F41196DD
:100AB0001C91843099F58181682F70E0611B710968
:100AC0003FC0843021F0923031F48230B9F181811D
:100AD000882389F12DC011961C9111978230F1F075
:100AE00081811817D9F412962D913C911397828128
:100AF00093818217930794F028173907BCF0149656
:100B00008D919D910D90BC91A02D248135814681C0
:100B10005781281739074A075B0718F4112341F05A
:100B20000AC082179307A407B50740F4112319F0F0
:100B300061E070E005C06FEF7FEF02C060E070E041
:100B4000CB011F910895DF93CF93CDB7DEB72797E1
:100B50000FB6F894DEBF0FBECDBF9A8389836B8337
:100B60004C832D83AAE2B0E0EAE2F0E0808180616C
:100B70008C93AAE2B0E0EAE2F0E0808188608C9396
:100B8000A0E4B0E0E0E4F0E0808180688C938B81A9
:100B9000282F30E03F832E838E819F8187309105FF
:100BA00009F449C02E813F81283031055CF48E81E3
:100BB0009F818530910599F02E813F812630310546
:100BC00021F17AC08E819F818830910509F449C056
:100BD0002E813F812930310509F459C06DC0AAE248
:100BE000B0E0EAE2F0E080818B7F8C93A0E4B0E09B
:100BF000E0E4F0E080818B7F8C93A0E4B0E0E0E45F
:100C0000F0E080818D7F8C9357C0AAE2B0E0EAE2E9
:100C1000F0E080818B7F8C93A0E4B0E0E0E4F0E032
:100C200080818B7F8C93A0E4B0E0E0E4F0E08081F1
:100C300082608C9341C0AAE2B0E0EAE2F0E08081F9
:100C40008B7F8C93A0E4B0E0E0E4F0E080818460EE
:100C50008C93A0E4B0E0E0E4F0E080818D7F8C93A1
:100C60002BC0AAE2B0E0EAE2F0E080818B7F8C93B7
:100C7000A0E4B0E0E0E4F0E0808184608C93A0E444
:100C8000B0E0E0E4F0E0808182608C9315C0AAE2DD
:100C9000B0E0EAE2F0E0808184608C93A0E4B0E010
:100CA000E0E4F0E0808184608C93A0E4B0E0E0E4D4
:100CB000F0E0808182608C93A0E4B0E0E0E4F0E0BA
:100CC000808180688C938C81882379F4A0E4B0E0E3
:100CD000E0E4F0E080818F7E8C93A0E4B0E0E0E47B
:100CE000F0E080818F7D8C9323C08C81813079F4FA
:100CF000A0E4B0E0E0E4F0E080818F7E8C93A0E49B
:100D0000B0E0E0E4F0E0808180628C9311C08C81DF
:100D1000823071F4A0E4B0E0E0E4F0E08081806132
:100D20008C93A0E4B0E0E0E4F0E0808180628C93FA
:100D3000A0E4B0E0E0E4F0E0808180688C938D81F5
:100D4000813041F4A0E4B0E0E0E4F0E08081877F0E
:100D50008C930AC08D81823039F4A0E4B0E0E0E4E5
:100D6000F0E0808188608C93E9E2F0E08981808303
:100D7000E0E4F0E0108227960FB6F894DEBF0FBED5
:100D8000CDBFCF91DF910895DF93CF930F92CDB771
:100D9000DEB78983EBE2F0E08081829586958770EB
:100DA000882F90E0817090700097A1F3ECE2F0E062
:100DB000898180830F90CF91DF910895DF93CF9346
:100DC00000D00F92CDB7DEB79B838A8319820EC005
:100DD0008981282F30E08A819B81FC01E20FF31F7B
:100DE00080810E94C40689818F5F89838981282F31
:100DF00030E08A819B81FC01E20FF31F8081882310
:100E000039F70F900F900F90CF91DF910895DF93F6
:100E1000CF93CDB7DEB727970FB6F894DEBF0FBEDE
:100E2000CDBF9C838B837E836D831A8219820EC013
:100E300089819A8101969A83898329813A818D815A
:100E40009E812817390711F41F820DC0EBE2F0E0F4
:100E5000808188236CF7ECE2F0E08081EB81FC81FB
:100E6000808381E08F838F8127960FB6F894DEBF51
:100E70000FBECDBFCF91DF910895DF93CF9300D008
:100E8000CDB7DEB79A838983AAE2B0E0EAE2F0E068
:100E9000808180688C9389819A81909333038093B9
:100EA00032030F900F90CF91DF910895DF93CF938E
:100EB000CDB7DEB7AAE2B0E0EAE2F0E080818F775A
:100EC0008C93CF91DF910895DF93CF93CDB7DEB7A9
:100ED000AAE2B0E0EAE2F0E0808180688C93CF91F2
:100EE000DF910895DF93CF93CDB7DEB72D970FB67F
:100EF000F894DEBF0FBECDBF98878F8369874A877E
:100F00003C872B871D821C821B821A8219823BC060
:100F1000CE01069660E177E20E9407078A838A8104
:100F2000813001F58D81282F30E08F819885FC017B
:100F3000E20FF31F8E8180838D818F5F8D839E8171
:100F40008A85981779F48D81882F90E09C012F5F16
:100F50003F4F8F819885FC01E20FF31F108281E0E3
:100F60008D8723C08B819C8101969C838B832B81F1
:100F70003C818B859C852817390711F41D8615C087
:100F800089818F5F898399818985981708F28D817E
:100F9000882F90E09C012F5F3F4F8F819885FC0147
:100FA000E20FF31F108281E08D878D852D960FB69D
:100FB000F894DEBF0FBECDBFCF91DF9108951F9291
:100FC0000F920FB60F9211242F933F934F935F937D
:100FD0006F937F938F939F93AF93BF93EF93FF9301
:100FE000DF93CF93CDB7DEB7ECE2F0E08081809362
:100FF0002C03E0913203F09133030995CF91DF91F7
:10100000FF91EF91BF91AF919F918F917F916F91E0
:101010005F914F913F912F910F900FBE0F901F90B6
:101020001895DF93CF93CDB7DEB72B970FB6F89413
:10103000DEBF0FBECDBF9D838C831B82B7C28B8169
:10104000882F90E09C01220F331F220F331F8C81C9
:101050009D81FC01E20FF31F80819AE0692F0E94BD
:10106000623A8A838B81882F90E09C01220F331F84
:10107000220F331F8C819D81FC01E20FF31F8081C1
:101080009AE0692F0E94623A892F89838B81882F89
:1010900090E09C01220F331F220F331F8C819D8112
:1010A000FC01E20FF31F8281882389F08B81882F56
:1010B00090E09C01220F331F220F331F8C819D81F2
:1010C000FC01E20FF31F8281813009F0ADC08A81FB
:1010D000282F30E03B872A876A857B85623071053F
:1010E000D9F18A859B858330910534F42A853B8527
:1010F0002130310571F098C06A857B8563307105B8
:1011000009F44DC08A859B858430910509F46AC035
:101110008BC0AAE3B0E0EAE3F0E08081482F8B8146
:10112000882F90E09C01220F331F220F331F8C81E8
:101130009D81FC01E20FF31F8281282F30E089811D
:10114000882F90E0B90102C0660F771F8A95E2F7F9
:10115000CB01842B8C9368C0A7E3B0E0E7E3F0E019
:101160008081482F8B81882F90E09C01220F331FB4
:10117000220F331F8C819D81FC01E20FF31F8281BE
:10118000282F30E08981882F90E0B90102C0660FD6
:10119000771F8A95E2F7CB01842B8C9345C0A4E39B
:1011A000B0E0E4E3F0E08081482F8B81882F90E06D
:1011B0009C01220F331F220F331F8C819D81FC0164
:1011C000E20FF31F8281282F30E08981882F90E081
:1011D000B90102C0660F771F8A95E2F7CB01842B15
:1011E0008C9322C0A1E3B0E0E1E3F0E08081482FDE
:1011F0008B81882F90E09C01220F331F220F331F19
:101200008C819D81FC01E20FF31F8281282F30E049
:101210008981882F90E0B90102C0660F771F8A95F7
:10122000E2F7CB01842B8C938B81882F90E09C017B
:10123000220F331F220F331F8C819D81FC01E20F8F
:10124000F31F8281882309F0CFC08B81882F90E023
:101250009C01220F331F220F331F8C819D81FC01C3
:10126000E20FF31F8381882389F08B81882F90E020
:101270009C01220F331F220F331F8C819D81FC01A3
:10128000E20FF31F8381813009F08DC18A81282FFD
:1012900030E0398728876885798562307105D9F112
:1012A000888599858330910534F4288539852130E6
:1012B000310571F078C1688579856330710509F46D
:1012C0004DC0888599858430910509F46AC06BC149
:1012D000ABE3B0E0EBE3F0E08081482F8B81882F17
:1012E00090E09C01220F331F220F331F8C819D81C0
:1012F000FC01E20FF31F8381282F30E08981882FC2
:1013000090E0B90102C0660F771F8A95E2F7CB0122
:10131000842B8C9348C1A8E3B0E0E8E3F0E080813F
:10132000482F8B81882F90E09C01220F331F220FC2
:10133000331F8C819D81FC01E20FF31F8381282FD5
:1013400030E08981882F90E0B90102C0660F771FD5
:101350008A95E2F7CB01842B8C9325C1A5E3B0E0FD
:10136000E5E3F0E08081482F8B81882F90E09C019D
:10137000220F331F220F331F8C819D81FC01E20F4E
:10138000F31F8381282F30E08981882F90E0B901F5
:1013900002C0660F771F8A95E2F7CB01842B8C93EE
:1013A00002C1A2E3B0E0E2E3F0E08081482F8B814C
:1013B000882F90E09C01220F331F220F331F8C8156
:1013C0009D81FC01E20FF31F8381282F30E089818A
:1013D000882F90E0B90102C0660F771F8A95E2F767
:1013E000CB01842B8C93DFC08B81882F90E09C01F4
:1013F000220F331F220F331F8C819D81FC01E20FCE
:10140000F31F8281813009F0CEC08B81882F90E05C
:101410009C01220F331F220F331F8C819D81FC0101
:10142000E20FF31F8181813089F08B81882F90E05A
:101430009C01220F331F220F331F8C819D81FC01E1
:10144000E20FF31F8181882309F0ADC08A81282F24
:1014500030E03F832E836E817F8162307105D9F148
:101460008E819F818330910534F42E813F8121301C
:10147000310571F098C06E817F816330710509F488
:101480004DC08E819F818430910509F46AC08BC064
:10149000ABE3B0E0EBE3F0E08081482F8B81882F55
:1014A00090E09C01220F331F220F331F8C819D81FE
:1014B000FC01E20FF31F8181282F30E08981882F02
:1014C00090E0B90102C0660F771F8A95E2F7CB0161
:1014D000842B8C9368C0A8E3B0E0E8E3F0E080815F
:1014E000482F8B81882F90E09C01220F331F220F01
:1014F000331F8C819D81FC01E20FF31F8181282F16
:1015000030E08981882F90E0B90102C0660F771F13
:101510008A95E2F7CB01842B8C9345C0A5E3B0E01C
:10152000E5E3F0E08081482F8B81882F90E09C01DB
:10153000220F331F220F331F8C819D81FC01E20F8C
:10154000F31F8181282F30E08981882F90E0B90135
:1015500002C0660F771F8A95E2F7CB01842B8C932C
:1015600022C0A2E3B0E0E2E3F0E08081482F8B816B
:10157000882F90E09C01220F331F220F331F8C8194
:101580009D81FC01E20FF31F8181282F30E08981CA
:10159000882F90E0B90102C0660F771F8A95E2F7A5
:1015A000CB01842B8C938B818F5F8B838B818032DB
:1015B00008F445CD2B960FB6F894DEBF0FBECDBF15
:1015C000CF91DF910895DF93CF93CDB7DEB7279703
:1015D0000FB6F894DEBF0FBECDBF9D838C837F8393
:1015E0006E838C819D819B838A8381E0898311C076
:1015F0002A813B818C819D81AC01249FC001259F64
:10160000900D349F900D11249B838A8389818F5F75
:1016100089838981282F30E08E819F81281739079F
:1016200038F38A819B8127960FB6F894DEBF0FBEF0
:10163000CDBFCF91DF910895CF92DF92EF92FF92CD
:101640000F931F93DF93CF9300D00F92CDB7DEB7E8
:1016500089837B836A83CC24DD246894C5F88A81DE
:101660009B819C0140E050E080E094E2A4EFB0E078
:10167000BC01CD010E94823ADA01C9010F2EF0EFC0
:10168000EF2EFFEFFF2EFFEF0F2FFFEF1F2FF02D9D
:10169000E80EF91E0A1F1B1F8981282F30E084E005
:1016A00090E0B9010E94E30A880F991F9C0140E075
:1016B00050E0C801B7010E94823ADA01C901F6017F
:1016C0008083E0E2F0E088E480838981813079F4EE
:1016D000A1E2B0E0E1E2F0E080818E7F8C93A1E2B4
:1016E000B0E0E1E2F0E080818D7F8C9335C08981AC
:1016F000843079F4A1E2B0E0E1E2F0E08081816041
:101700008C93A1E2B0E0E1E2F0E080818D7F8C93E8
:1017100023C08981803179F4A1E2B0E0E1E2F0E018
:1017200080818E7F8C93A1E2B0E0E1E2F0E08081E5
:1017300082608C9311C08981803471F4A1E2B0E0A1
:10174000E1E2F0E0808181608C93A1E2B0E0E1E22F
:10175000F0E0808182608C93A6E5B0E0E6E5F0E001
:10176000808181608C93A6E5B0E0E6E5F0E08081C1
:1017700084608C930F900F900F90CF91DF911F9109
:101780000F91FF90EF90DF90CF900895DF93CF936C
:1017900000D0CDB7DEB789836A838981882F90E036
:1017A000880F991F982F8A81892B0E94DC0B0F903C
:1017B0000F90CF91DF910895DF93CF930F92CDB724
:1017C000DEB78983E3E2F0E089818083E6E5F0E03B
:1017D00084E88083E6E5F0E080818823DCF70F90E1
:1017E000CF91DF910895DF93CF93CDB7DEB7E6E5D4
:1017F000F0E084EA8083E6E5F0E080818823DCF78E
:10180000CF91DF910895DF93CF93CDB7DEB7E6E5B3
:10181000F0E084E98083CF91DF910895DF93CF9347
:1018200000D0CDB7DEB79A838983E6E5F0E084EC9B
:101830008083E6E5F0E080818823DCF7E3E2F0E0F6
:101840008081E981FA8180830F900F90CF91DF91A1
:101850000895DF93CF9300D0CDB7DEB79A83898305
:10186000E6E5F0E084E88083E6E5F0E08081882327
:10187000DCF7E3E2F0E08081E981FA8180830F9078
:101880000F90CF91DF910895DF93CF9300D0CDB724
:10189000DEB79A838983E1E2F0E08081887FE98185
:1018A000FA8180830F900F90CF91DF910895DF939D
:1018B000CF93CDB7DEB7AFE5B0E0EFE5F0E08081E4
:1018C00080688C93CF91DF910895DF93CF93CDB74C
:1018D000DEB7AFE5B0E0EFE5F0E080818F778C9385
:1018E000CF91DF910895DF93CF9300D000D000D047
:1018F000CDB7DEB78B836C838B819AE0692F0E9412
:10190000623A892F8A838B819AE0692F0E94623A1A
:1019100089838C81282F30E03E832D838D819E81A9
:10192000009709F463C02D813E812130310509F013
:10193000BCC089818130A1F4ABE3B0E0EBE3F0E01F
:101940008081482F8A81282F30E081E090E0022EAC
:1019500002C0880F991F0A94E2F7842B8C93A5C0CC
:1019600089818230A1F4A8E3B0E0E8E3F0E080816F
:10197000482F8A81282F30E081E090E0022E02C0BB
:10198000880F991F0A94E2F7842B8C938EC089816B
:101990008330A1F4A5E3B0E0E5E3F0E08081482FD7
:1019A0008A81282F30E081E090E0022E02C0880F6B
:1019B000991F0A94E2F7842B8C9377C08981843035
:1019C00009F073C0A2E3B0E0E2E3F0E08081482FC9
:1019D0008A81282F30E081E090E0022E02C0880F3B
:1019E000991F0A94E2F7842B8C935FC08981813020
:1019F000A9F4ABE3B0E0EBE3F0E08081482F8A810B
:101A0000282F30E081E090E0022E02C0880F991F5D
:101A10000A94E2F7809584238C9347C089818230B1
:101A2000A9F4A8E3B0E0E8E3F0E08081482F8A81E0
:101A3000282F30E081E090E0022E02C0880F991F2D
:101A40000A94E2F7809584238C932FC08981833098
:101A5000A9F4A5E3B0E0E5E3F0E08081482F8A81B6
:101A6000282F30E081E090E0022E02C0880F991FFD
:101A70000A94E2F7809584238C9317C0898184307F
:101A8000A1F4A2E3B0E0E2E3F0E08081482F8A8194
:101A9000282F30E081E090E0022E02C0880F991FCD
:101AA0000A94E2F7809584238C9326960FB6F894D7
:101AB000DEBF0FBECDBFCF91DF910895DF93CF93EF
:101AC00000D000D0CDB7DEB78C838C819AE0692F2F
:101AD0000E94623A892F8B838C819AE0692F0E9441
:101AE000623A8A8319828A81813091F4E9E3F0E0D5
:101AF0008081282F30E08B81882F90E0A90102C0DF
:101B0000559547958A95E2F7CA01817089833EC051
:101B10008A81823091F4E6E3F0E08081282F30E082
:101B20008B81882F90E0A90102C0559547958A9531
:101B3000E2F7CA018170898329C08A81833091F4D8
:101B4000E3E3F0E08081282F30E08B81882F90E064
:101B5000A90102C0559547958A95E2F7CA0181709F
:101B6000898314C08A81843089F4E0E3F0E08081C5
:101B7000282F30E08B81882F90E0A90102C0559575
:101B800047958A95E2F7CA018170898389810F9010
:101B90000F900F900F90CF91DF910895DF93CF9327
:101BA00000D000D00F92CDB7DEB78B838B819AE047
:101BB000692F0E94623A892F8A838B819AE0692F6C
:101BC0000E94623A89838981282F30E03D832C83EB
:101BD0008C819D818230910551F12C813D81233092
:101BE000310534F48C819D818130910561F05AC0BA
:101BF0002C813D812330310571F18C819D818430B0
:101C00009105E9F14FC0ABE3B0E0EBE3F0E0808198
:101C1000482F8A81282F30E081E090E0022E02C018
:101C2000880F991F0A94E2F784278C933BC0A8E39E
:101C3000B0E0E8E3F0E08081482F8A81282F30E08F
:101C400081E090E0022E02C0880F991F0A94E2F70B
:101C500084278C9327C0A5E3B0E0E5E3F0E0808122
:101C6000482F8A81282F30E081E090E0022E02C0C8
:101C7000880F991F0A94E2F784278C9313C0A2E37C
:101C8000B0E0E2E3F0E08081482F8A81282F30E045
:101C900081E090E0022E02C0880F991F0A94E2F7BB
:101CA00084278C930F900F900F900F900F90CF91EF
:101CB000DF910895DF93CF9300D000D0CDB7DEB78A
:101CC00089836A838981282F30E03C832B838B8131
:101CD0009C8182309105D9F02B813C8123303105E4
:101CE00034F48B819C818130910561F01EC02B8181
:101CF0003C812330310581F08B819C8184309105BA
:101D000081F013C0EBE3F0E08A8180830EC0E8E34A
:101D1000F0E08A81808309C0E5E3F0E08A81808376
:101D200004C0E2E3F0E08A8180830F900F900F906F
:101D30000F90CF91DF910895DF93CF9300D000D023
:101D4000CDB7DEB78A8319828A81282F30E03C83A1
:101D50002B838B819C8182309105D9F02B813C8132
:101D60002330310534F48B819C818130910561F001
:101D70001EC02B813C812330310581F08B819C81F9
:101D80008430910581F013C0EBE3F0E0808189831A
:101D90000EC0E8E3F0E08081898309C0E5E3F0E06C
:101DA0008081898304C0E2E3F0E0808189838981B6
:101DB0000F900F900F900F90CF91DF910895DF93C8
:101DC000CF93CDB7DEB781E060E177E20E941C0BD4
:101DD000CF91DF910895DF93CF9300D00F92CDB7CD
:101DE000DEB79B838A83EA81FB8182818F77EA81D8
:101DF000FB818283EA81FB8182819AE0692F0E94C4
:101E0000623A882F90E082959295907F9827807F04
:101E10009827282FEA81FB8182819AE0692F0E940E
:101E2000623A892F822BEA81FB818283EA81FB81DE
:101E300081819AE0692F0E94623A882F90E0829512
:101E40009295907F9827807F9827282FEA81FB81A1
:101E500081819AE0692F0E94623A892F822BEA8160
:101E6000FB818183EA81FB8180818983EA81FB8117
:101E700080819AE0692F0E94623A892FEA81FB8172
:101E80008083EA81FB8184818C3049F5EA81FB8182
:101E90008381813041F4EA81FB8180818064EA8121
:101EA000FB81808307C0EA81FB8180818F7BEA818F
:101EB000FB818083EA81FB8180818A3040F0EA8166
:101EC000FB8180818062EA81FB8180832EC0EA8170
:101ED000FB8180818F7DEA81FB81808326C089819F
:101EE0008A3090F08981843178F4EA81FB818081A5
:101EF0008061EA81FB818083EA81FB8180818F7D23
:101F0000EA81FB81808311C08981843170F0EA818C
:101F1000FB8180818061EA81FB818083EA81FB8192
:101F200080818062EA81FB8180830F900F900F9007
:101F3000CF91DF910895DF93CF9300D000D00F921F
:101F4000CDB7DEB749835A836B837C838D83CE0103
:101F500001960E94EB0E0E94F30B88E660E00E945F
:101F6000C60B80E00E94DC0B8B810E94DC0B8A8117
:101F70000E94DC0B89810E94DC0B0E94030C0F90F5
:101F80000F900F900F900F90CF91DF910895DF93F6
:101F9000CF9300D0CDB7DEB79A838983E981FA81E8
:101FA0008281882F90E080779070959587959595A0
:101FB000879595958795959587959C01220F331F59
:101FC000C901880F991F880F991F820F931F982F9F
:101FD000E981FA8182818F70890FE981FA81828398
:101FE000E981FA818181882F90E0807790709595C2
:101FF00087959595879595958795959587959C0156
:10200000220F331FC901880F991F880F991F820F54
:10201000931F982FE981FA8181818F70890FE9815F
:10202000FA818183E981FA818081829586958695FE
:102030008370882F90E0817090708823D9F1E981B6
:10204000FA818CE08483E981FA818081829586958A
:102050008770882F90E081709070882329F0E98143
:10206000FA8181E0838303C0E981FA811382E981E7
:10207000FA818081882F90E0807190709595879586
:102080009595879595958795959587959C01220FB0
:10209000331FC901880F991F880F991F820F931F43
:1020A000982FE981FA8180818F70890FE981FA8107
:1020B000808326C0E981FA8188E18483E981FA81FD
:1020C0008081882F90E08073907095958795959585
:1020D000879595958795959587959C01220F331F38
:1020E000C901880F991F880F991F820F931F982F7E
:1020F000E981FA8180818F70890FE981FA8180837B
:102100000F900F90CF91DF910895AF92BF92CF9231
:10211000DF92EF92FF920F931F93DF93CF93CDB790
:10212000DEB768970FB6F894DEBF0FBECDBF0E9432
:10213000F30B88E660E00E94C60B80E00E94DC0B97
:102140000E94F30B88E661E00E94C60B1B86CE015D
:102150000B960E940E0C8B858887CE010B960E94F1
:102160000E0C8B858F83CE010B960E94290C8B85DC
:102170008E83CE0106960E94C70FCE0101969D87E1
:102180008C87FE013696FF87EE87F5E0F88BEE85AB
:10219000FF8500808E859F8501969F878E87EC85C1
:1021A000FD8500828C859D8501969D878C87988909
:1021B0009150988BE889EE2351F720E0298130E097
:1021C0003A8140E04B8180E08C8190E09D81298BB9
:1021D0003A8B4B8B8C8B9D8BA988BA88CB88DC88FB
:1021E000ED88FE880F89188D2A2D3B2D4C2D5D2DF5
:1021F0006E2D7F2D802F912F68960FB6F894DEBF3D
:102200000FBECDBFCF91DF911F910F91FF90EF9047
:10221000DF90CF90BF90AF9008950F931F93DF93FF
:10222000CF9300D0CDB7DEB79A838983E981FA8155
:1022300081819AE0692F0E94623A882F90E082950E
:102240009295907F9827807F9827282FE981FA819F
:1022500081819AE0692F0E94623A892F822BE9815D
:10226000FA818183E981FA8182819AE0692F0E9453
:10227000623A882F90E082959295907F9827807F90
:102280009827282FE981FA8182819AE0692F0E949C
:10229000623A892F822BE981FA818283E981FA816E
:1022A0008381948124E630E0B9010E946E3A2AE0ED
:1022B00030E0B9010E946E3ACB018C010295129573
:1022C000107F1027007F1027E981FA818381948194
:1022D00024E630E0B9010E946E3A2AE030E0B9010C
:1022E0000E946E3A802B912BE981FA81948383833B
:1022F0000F900F90CF91DF911F910F910895DF9371
:10230000CF9300D000D00F92CDB7DEB749835A8368
:102310006B837C838D83CE0101960E940D110E94F8
:10232000F30B88E660E00E94C60B83E00E94DC0BA2
:1023300089810E94DC0B8A810E94DC0B8B810E94C8
:10234000DC0B8C819D810E94DC0B0E94030C0F90A2
:102350000F900F900F900F90CF91DF910895DF9322
:10236000CF9300D0CDB7DEB79A838983E981FA8114
:1023700080818770E981FA818083E981FA81818196
:10238000882F90E0807390709595879595958795A7
:1023900095958795959587959C01220F331FC901C7
:1023A000880F991F880F991F820F931F982FE9811B
:1023B000FA8181818F70890FE981FA818183E981B6
:1023C000FA818281882F90E0807190709595879531
:1023D0009595879595958795959587959C01220F5D
:1023E000331FC901880F991F880F991F820F931FF0
:1023F000982FE981FA8182818F70890FE981FA81B2
:102400008283E981FA8183819481807F90709295A3
:1024100082958F7089279F7089279C01220F331F17
:10242000C901880F991F880F991F280F391FE9814B
:10243000FA81838194818F709070820F931FE9815C
:10244000FA81948383830F900F90CF91DF91089549
:10245000AF92BF92CF92DF92EF92FF920F931F93B2
:10246000DF93CF93CDB7DEB768970FB6F894DEBF92
:102470000FBECDBF0E94F30B88E660E00E94C60B42
:1024800083E00E94DC0B0E94F30B88E661E00E946F
:10249000C60B1B86CE010B960E940E0C8B858E837D
:1024A000CE010B960E940E0C8B858F83CE010B966E
:1024B0000E940E0C8B858887CE010B960E94290CFA
:1024C0008B85882F90E09A8789870E94030CCE0124
:1024D00006960E94AF11CE0101969D878C87FE0162
:1024E0003696FF87EE87F5E0F88BEE85FF85008056
:1024F0008E859F8501969F878E87EC85FD8500825E
:102500008C859D8501969D878C8798899150988BA5
:10251000E889EE2351F720E0298130E03A8140E05C
:102520004B8180E08C8190E09D81298B3A8B4B8B95
:102530008C8B9D8BA988BA88CB88DC88ED88FE8837
:102540000F89188D2A2D3B2D4C2D5D2D6E2D7F2D45
:10255000802F912F68960FB6F894DEBF0FBECDBFC7
:10256000CF91DF911F910F91FF90EF90DF90CF906F
:10257000BF90AF900895DF93CF9300D000D00F921B
:10258000CDB7DEB749835A836B837C838D83898182
:10259000882F90E0A0E0B0E0BC01CD010E94CA17F6
:1025A00080E20E9410178A81882F90E0A0E0B0E0BE
:1025B000BC01CD010E94CA1780E20E9410178B81D6
:1025C000882F90E0A0E0B0E0BC01CD010E94CA17C6
:1025D00080E20E9410178C81882329F480E690E025
:1025E0000E94321707C08C81813021F484E690E08C
:1025F0000E9432170F900F900F900F900F90CF9175
:10260000DF910895DF93CF9300D000D0CDB7DEB730
:102610009A838983E981FA818081282F30E03C8385
:102620002B838B819C8184309105A1F12B813C818E
:102630002530310584F48B819C818230910501F134
:102640002B813C812330310504F58B819C818130C5
:10265000910589F032C02B813C812630310521F172
:102660008B819C8186309105D4F02B813C81273071
:102670003105F9F022C088E690E00E9432171DC0B3
:102680008DE690E00E94321718C082E790E00E9429
:10269000321713C088E790E00E9432170EC080E81E
:1026A00090E00E94321709C087E890E00E9432173C
:1026B00004C08CE890E00E943217E981FA818181A0
:1026C000882F90E0A0E0B0E0BC01CD010E94CA17C5
:1026D00080E20E941017E981FA818281882F90E0C0
:1026E000A0E0B0E0BC01CD010E94CA1780E20E94C8
:1026F0001017E981FA8183819481CC01A0E0B0E0D8
:10270000BC01CD010E94CA1780E20E9410170F90F1
:102710000F900F900F90CF91DF910895DF93CF939B
:1027200000D00F92CDB7DEB789838981282F30E0A2
:102730003B832A838A819B8181309105D1F02A8154
:102740003B81223031052CF48A819B81009761F016
:102750001EC02A813B812230310581F08A819B8114
:102760008330910581F013C08BE161E00E94730C0E
:102770000EC08FE061E00E94730C09C08EE061E042
:102780000E94730C04C080E161E00E94730C0F9002
:102790000F900F90CF91DF910895DF93CF9300D0EA
:1027A0000F92CDB7DEB789838981282F30E03B8334
:1027B0002A838A819B8181309105D1F02A813B81D6
:1027C000223031052CF48A819B81009761F01EC074
:1027D0002A813B812230310581F08A819B818330BF
:1027E000910581F013C08BE160E00E94730C0EC074
:1027F0008FE060E00E94730C09C08EE060E00E94F0
:10280000730C04C080E160E00E94730C0F900F9085
:102810000F90CF91DF910895DF93CF9300D00F9267
:10282000CDB7DEB789838981282F30E03B832A83A7
:102830008A819B8181309105E9F02A813B81223098
:1028400031052CF48A819B81009761F01AC02A819E
:102850003B812230310551F08A819B818330910583
:1028600069F00FC08BE10E94CE0D0BC08EE00E947C
:10287000CE0D07C08FE00E94CE0D03C080E10E9404
:10288000CE0D0F900F900F90CF91DF910895DF93B1
:10289000CF93CDB7DEB72E970FB6F894DEBF0FBE3D
:1028A000CDBF82E00E94211788E20E9421178CE0B0
:1028B0000E94211786E00E94211781E00E942117C3
:1028C00080E090E0A0E0B0E48B879C87AD87BE8776
:1028D0006B857C858D859E8520E030E04AE755E458
:1028E0000E941F02DC01CB018F839887A987BA87DA
:1028F0006F81788589859A8520E030E040E85FE344
:102900000E94790388232CF481E090E09E838D83DC
:102910003FC06F81788589859A8520E03FEF4FE73A
:1029200057E40E94190318164CF56B857C858D853C
:102930009E8520E030E040E251E40E941F02DC016D
:10294000CB01BC01CD010E944900DC01CB019E837B
:102950008D830FC080E991E09C838B838B819C8168
:102960000197F1F79C838B838D819E8101979E83D4
:102970008D838D819E81009769F714C06F81788562
:1029800089859A850E944900DC01CB019E838D8355
:102990008D819E819A83898389819A810197F1F73C
:1029A0009A8389832E960FB6F894DEBF0FBECDBFF3
:1029B000CF91DF910895DF93CF93CDB7DEB7E9973D
:1029C0000FB6F894DEBF0FBECDBF89AF89AD82953B
:1029D0008F70982F917084E1692F0E94730C89ADDC
:1029E000829586958770982F917085E1692F0E9456
:1029F000730C89AD8295869586958370982F91701A
:102A000086E1692F0E94730C89AD982F991F992731
:102A1000991F88E1692F0E94730C8CE061E00E948D
:102A2000730C80E090E0A0E8BFE38DAB9EABAFAB52
:102A3000B8AF6DA97EA98FA998AD20E030E04AE734
:102A400055E40E941F02DC01CB0189AB9AABABAB12
:102A5000BCAB69A97AA98BA99CA920E030E040E829
:102A60005FE30E94790388232CF481E090E098AB27
:102A70008FA73FC069A97AA98BA99CA920E03FEF45
:102A80004FE757E40E94190318164CF56DA97EA96B
:102A90008FA998AD20E030E040E251E40E941F028F
:102AA000DC01CB01BC01CD010E944900DC01CB015E
:102AB00098AB8FA70FC080E991E09EA78DA78DA549
:102AC0009EA50197F1F79EA78DA78FA598A90197BD
:102AD00098AB8FA78FA598A9009769F714C069A92B
:102AE0007AA98BA99CA90E944900DC01CB0198AB73
:102AF0008FA78FA598A99CA78BA78BA59CA50197AD
:102B0000F1F79CA78BA78CE060E00E94730C80E03B
:102B100090E0A0E8BFE38FA398A7A9A7BAA76FA1E9
:102B200078A589A59AA520E030E04AE755E40E94FF
:102B30001F02DC01CB018BA39CA3ADA3BEA36BA1A1
:102B40007CA18DA19EA120E030E040E85FE30E94DF
:102B5000790388232CF481E090E09AA389A33FC0F5
:102B60006BA17CA18DA19EA120E03FEF4FE757E430
:102B70000E94190318164CF56FA178A589A59AA58E
:102B800020E030E040E251E40E941F02DC01CB0172
:102B9000BC01CD010E944900DC01CB019AA389A3AD
:102BA0000FC080E991E098A38F8F8F8D98A1019736
:102BB000F1F798A38F8F89A19AA101979AA389A36E
:102BC00089A19AA1009769F714C06BA17CA18DA17E
:102BD0009EA10E944900DC01CB019AA389A389A18F
:102BE0009AA19E8F8D8F8D8D9E8D0197F1F79E8F6F
:102BF0008D8F89AD982F917084E1692F0E94730C9D
:102C000089AD8695982F917085E1692F0E94730C8C
:102C100089AD86958695982F917086E1692F0E94DF
:102C2000730C89AD869586958695982F917088E16D
:102C3000692F0E94730C8CE061E00E94730C80E0AD
:102C400090E0A0E8BFE3898F9A8FAB8FBC8F698D2E
:102C50007A8D8B8D9C8D20E030E04AE755E40E9410
:102C60001F02DC01CB018D8B9E8BAF8BB88F6D89E2
:102C70007E898F89988D20E030E040E85FE30E94F4
:102C8000790388232CF481E090E09C8B8B8B3FC0F0
:102C90006D897E898F89988D20E03FEF4FE757E45B
:102CA0000E94190318164CF5698D7A8D8B8D9C8DB9
:102CB00020E030E040E251E40E941F02DC01CB0141
:102CC000BC01CD010E944900DC01CB019C8B8B8BA8
:102CD0000FC080E991E09A8B898B89899A89019745
:102CE000F1F79A8B898B8B899C8901979C8B8B8BB5
:102CF0008B899C89009769F714C06D897E898F89BB
:102D0000988D0E944900DC01CB019C8B8B8B8B89B9
:102D10009C89988B8F878F8598890197F1F7988B7D
:102D20008F878CE060E00E94730C80E090E0A0E868
:102D3000BFE38B879C87AD87BE876B857C858D8540
:102D40009E8520E030E04AE755E40E941F02DC0146
:102D5000CB018F839887A987BA876F81788589850A
:102D60009A8520E030E040E85FE30E947903882301
:102D70002CF481E090E09E838D833FC06F81788545
:102D800089859A8520E03FEF4FE757E40E941903B9
:102D900018164CF56B857C858D859E8520E030E08E
:102DA00040E251E40E941F02DC01CB01BC01CD01D5
:102DB0000E944900DC01CB019E838D830FC080E916
:102DC00091E09C838B838B819C810197F1F79C839D
:102DD0008B838D819E8101979E838D838D819E81C2
:102DE000009769F714C06F81788589859A850E945C
:102DF0004900DC01CB019E838D838D819E819A8366
:102E0000898389819A810197F1F79A838983E99669
:102E10000FB6F894DEBF0FBECDBFCF91DF910895FE
:102E2000DF93CF930F92CDB7DEB789838DE061E05A
:102E30000E94730C89810E94DB140F90CF91DF9167
:102E40000895DF93CF930F92CDB7DEB789838DE0DE
:102E500060E00E94730C89810E94DB140F90CF9177
:102E6000DF910895DF93CF9300D00F92CDB7DEB7F7
:102E70009B838A83198210C08981282F30E08A8140
:102E80009B81FC01E20FF31F80810E9410178A8151
:102E90009B8101969B838A838981282F30E08A81D8
:102EA0009B81FC01E20FF31F8081882329F70F909B
:102EB0000F900F90CF91DF910895DF93CF93CDB70F
:102EC000DEB7CB56D0400FB6F894DEBF0FBECDBFF5
:102ED000FE01E859FF4F60837183828393831B82D5
:102EE0001A82FE01E859FF4F80819181A281B3814E
:102EF000181619061A061B0644F4FE01E859FF4F7E
:102F0000808191819B838A8316C0FE01E859FF4F1F
:102F100080819181A281B381BB236CF4FE01E859C9
:102F2000FF4F80819181909581959F4F9B838A83EC
:102F30008DE20E9410178A819B819E012C5F3F4F7A
:102F4000B9014AE050E00E94F63A19820EC0898128
:102F5000282F30E0CE010496FC01E20FF31F8081A0
:102F60000E94101789818F5F89838981282F30E023
:102F7000CE010496FC01E20FF31F8081882339F70C
:102F8000C559DF4F0FB6F894DEBF0FBECDBFCF914E
:102F9000DF9108950F931F93DF93CF93CDB7DEB7E3
:102FA0006D970FB6F894DEBF0FBECDBF6A8F7B8FD3
:102FB0008C8F9D8F84E1FE013696DF01982F1D9244
:102FC0009A95E9F71D821C821B821A8219828A8DCA
:102FD0009B8DAC8DBD8D0097A105B10571F48D81E0
:102FE000282F30E0CE010696FC01E20FF31F80E3AC
:102FF00080838D818F5F8D8347C08A8D9B8DAC8D43
:10300000BD8DBB230CF040C08A8D9B8DAC8DBD8DDA
:10301000B095A095909581959F4FAF4FBF4F8A8FE8
:103020009B8FAC8FBD8F81E08C832EC08D81082F4C
:1030300010E08A8D9B8DAC8DBD8D2AE030E040E0A4
:1030400050E0BC01CD010E94823ADC01CB01282F67
:10305000205DCE010696FC01E00FF11F20838A8DD2
:103060009B8DAC8DBD8D2AE030E040E050E0BC018E
:10307000CD010E94823ADA01C9018A8F9B8FAC8F01
:10308000BD8F8D818F5F8D838A8D9B8DAC8DBD8D26
:103090000097A105B10551F68C81813069F48D81CD
:1030A000282F30E0CE010696FC01E20FF31F8DE2DF
:1030B00080838D818F5F8D838D81282F30E0CE01BD
:1030C0000696FC01E20FF31F10821B8203C08B8166
:1030D0008F5F8B838B81282F30E0CE010696FC0119
:1030E000E20FF31F8081882391F78B8181508983C0
:1030F0001D822CC08D81282F30E0CE010696FC0168
:10310000E20FF31F80818A838D81482F50E08981EF
:10311000282F30E0CE010696FC01E20FF31F20813C
:10312000CE010696FC01E40FF51F20838981282F2C
:1031300030E0CE010696FC01E20FF31F8A81808306
:103140008981815089838D818F5F8D838B81982FB9
:1031500096958D81891770F21D820EC08D81282F62
:1031600030E0CE010696FC01E20FF31F80810E9441
:1031700010178D818F5F8D838D81282F30E0CE01D8
:103180000696FC01E20FF31F8081882339F76D96C4
:103190000FB6F894DEBF0FBECDBFCF91DF911F9168
:1031A0000F910895DF93CF9300D0CDB7DEB7898319
:1031B0006A838981882329F48A8180580E94211793
:1031C00017C08981813029F48A8180540E94211797
:1031D0000FC08981823029F48A818C560E94211780
:1031E00007C08981833021F48A818C520E94211783
:1031F0000F900F90CF91DF910895DF93CF9300D080
:1032000000D0CDB7DEB79B838A836C838C818830F6
:1032100018F58C81882F90E00896880F991F880FE9
:10322000991F880F991F0E94211719820EC089814A
:10323000282F30E08A819B81FC01E20FF31F8081FF
:103240000E94101789818F5F89838981883078F384
:1032500080E060E00E94D2180F900F900F900F90C6
:10326000CF91DF910895DF93CF930F92CDB7DEB763
:10327000898389810E9410170F90CF91DF91089563
:10328000DF93CF9300D0CDB7DEB7198283E260E041
:103290000E94730C82E261E00E94730C81E261E0A3
:1032A0000E94730C80E261E00E94730C8FE20E9426
:1032B0005E0D882319F487E3898317C08EE20E948C
:1032C0005E0D882319F488E389830FC08DE20E9484
:1032D0005E0D882319F489E3898307C08BE20E947D
:1032E0005E0D882311F48FE289838981873349F049
:1032F0008981883331F08981893319F089818F324E
:1033000059F4809130038F3028F010923003898176
:103310008A83FAC01A82F8C0809130038F5F80934D
:10332000300383E261E00E94730C82E260E00E945D
:10333000730C81E261E00E94730C80E261E00E9404
:10334000730C8FE20E945E0D882319F484E3898355
:1033500017C08EE20E945E0D882319F485E38983ED
:103360000FC08DE20E945E0D882319F486E38983E5
:1033700007C08BE20E945E0D882311F48AE28983E4
:103380008981843349F08981853331F0898186339D
:1033900019F089818A3259F480912F038F3028F0F7
:1033A00010922F0389818A83AFC01A82ADC08091A9
:1033B0002F038F5F80932F0383E261E00E94730CE1
:1033C00082E261E00E94730C81E260E00E94730C73
:1033D00080E261E00E94730C8FE20E945E0D882300
:1033E00019F481E3898317C08EE20E945E0D882361
:1033F00019F482E389830FC08DE20E945E0D882359
:1034000019F483E3898307C08BE20E945E0D882351
:1034100011F48DE289838981813349F08981823376
:1034200031F08981833319F089818D3259F480918B
:103430002E038F3028F010922E0389818A8364C076
:103440001A8262C080912E038F5F80932E0383E2E5
:1034500061E00E94730C82E261E00E94730C81E2E1
:1034600061E00E94730C80E260E00E94730C8FE2C6
:103470000E945E0D882319F483E6898317C08EE2CB
:103480000E945E0D882319F480E389830FC08DE2CA
:103490000E945E0D882319F48DE3898307C08BE2B7
:1034A0000E945E0D882311F48BE289838981833623
:1034B00049F08981803331F089818D3319F0898118
:1034C0008B3259F480912D038F3028F010922D0308
:1034D00089818A8319C01A8217C080912D038F5F5A
:1034E00080932D0383E261E00E94730C82E261E02D
:1034F0000E94730C81E261E00E94730C80E261E043
:103500000E94730C89818A838A810F900F90CF91DA
:10351000DF910895DF93CF93CDB7DEB7809131036C
:10352000882F90E020912C03FC01EC5CFC4F208361
:10353000809131038F5F80933103CF91DF910895A4
:10354000DF93CF93CDB7DEB787E690E068E040E049
:1035500021E00E94A3058AE89AE10E943D07CF91ED
:10356000DF910895DF93CF93CDB7DEB78FEE0E9442
:10357000C40681E00E94C4068FEF0E94C4068FEF4C
:103580000E94C4068FEF0E94C4068FEF0E94C406FB
:10359000CF91DF910895DF93CF93CDB7DEB781E967
:1035A00090E00E94321710923103CF91DF9108957D
:1035B000DF93CF93CDB7DEB70E94B21A81E00E94AD
:1035C000C40680E00E94C40683E00E94C40681E035
:1035D0000E94C40680E00E94C40685E00E94C406E2
:1035E000809131038B30E0F380913103882F90E09C
:1035F000FC01EC5CFC4F10820E94CB1A80913D03D1
:10360000CF91DF910895DF93CF93CDB7DEB70E94BE
:10361000B21A81E00E94C40680E00E94C40684E0E1
:103620000E94C40682E00E94C40681E00E94C40693
:1036300080E00E94C40688E00E94C40680913103A5
:103640008B30E0F380913103882F90E0FC01EC5C3B
:10365000FC4F10820E94CB1A80913D03CF91DF91E5
:103660000895DF93CF93CDB7DEB70E94B21A81E001
:103670000E94C40680E00E94C40684E00E94C40642
:1036800082E00E94C40682E00E94C40680E00E949C
:10369000C40689E00E94C406809131038B30E0F3B8
:1036A00080913103882F90E0FC01EC5CFC4F10828C
:1036B0000E94CB1A80913D03CF91DF910895DF9353
:1036C000CF93CDB7DEB76D970FB6F894DEBF0FBEC0
:1036D000CDBF0E94D81A8D8F8D8D882309F079C0B7
:1036E00081E00E94211783E990E00E94321780E078
:1036F00090E0AAEFB3E4898F9A8FAB8FBC8F698D6E
:103700007A8D8B8D9C8D20E030E04AE755E40E9455
:103710001F02DC01CB018D8B9E8BAF8BB88F6D8927
:103720007E898F89988D20E030E040E85FE30E9439
:10373000790388232CF481E090E09C8B8B8B3FC035
:103740006D897E898F89988D20E03FEF4FE757E4A0
:103750000E94190318164CF5698D7A8D8B8D9C8DFE
:1037600020E030E040E251E40E941F02DC01CB0186
:10377000BC01CD010E944900DC01CB019C8B8B8BED
:103780000FC080E991E09A8B898B89899A8901978A
:10379000F1F79A8B898B8B899C8901979C8B8B8BFA
:1037A0008B899C89009769F714C06D897E898F8900
:1037B000988D0E944900DC01CB019C8B8B8B8B89FF
:1037C0009C89988B8F878F8598890197F1F7988BC3
:1037D0008F878D8D882309F080C00E94031B8D8FF9
:1037E0008D8D882309F079C081E00E94211781EA3C
:1037F00090E00E94321780E090E0AAEFB3E48B875C
:103800009C87AD87BE876B857C858D859E8520E0F6
:1038100030E04AE755E40E941F02DC01CB018F83B0
:103820009887A987BA876F81788589859A8520E0EE
:1038300030E040E85FE30E94790388232CF481E0C4
:1038400090E09E838D833FC06F81788589859A85BE
:1038500020E03FEF4FE757E40E94190318164CF59C
:103860006B857C858D859E8520E030E040E251E4CB
:103870000E941F02DC01CB01BC01CD010E94490066
:10388000DC01CB019E838D830FC080E991E09C8396
:103890008B838B819C810197F1F79C838B838D8136
:1038A0009E8101979E838D838D819E81009769F70C
:1038B00014C06F81788589859A850E944900DC0152
:1038C000CB019E838D838D819E819A83898389819B
:1038D0009A810197F1F79A8389838D8D6D960FB642
:1038E000F894DEBF0FBECDBFCF91DF910895DF9377
:1038F000CF930F92CDB7DEB70E94D81A8983898102
:10390000882319F40E94311B898389810F90CF91FC
:10391000DF910895DF93CF93CDB7DEB70E94B21A3F
:1039200081E00E94C40680E00E94C40683E00E94F9
:10393000C40685E00E94C40680E00E94C40689E0B7
:103940000E94C406809131038B30E0F380913103F3
:10395000882F90E0FC01EC5CFC4F10820E94CB1A97
:1039600080913D03CF91DF910895DF93CF930F9224
:10397000CDB7DEB789830E94B21A81E00E94C406E7
:1039800080E00E94C40686E00E94C40686E00E9491
:10399000C40681E00E94C40680E00E94C4068981BA
:1039A0000E94C40680E00E94C4068981825F0E9452
:1039B000C406809131038B30E0F380913103882F6E
:1039C00090E0FC01EC5CFC4F10820E94CB1A8091CD
:1039D0003D030F90CF91DF9108950F931F93DF93D5
:1039E000CF93CDB7DEB7C854D0400FB6F894DEBF42
:1039F0000FBECDBFFE01E85BFF4F80830E945F1BBF
:103A0000FE01E95BFF4F8083FE01E95BFF4F808190
:103A1000882309F08CC081E00E94211783E990E09F
:103A20000E943217FE01ED5BFF4F80E090E0AAE7B5
:103A3000B4E480839183A283B3838E01015C1F4F22
:103A4000FE01ED5BFF4F608171818281938120E0F7
:103A500030E04AE755E40E941F02DC01CB01F80187
:103A600080839183A283B383FE01FF96608171817D
:103A70008281938120E030E040E85FE30E94790397
:103A800088232CF481E090E09EAF8DAF46C0FE010C
:103A9000FF96608171818281938120E03FEF4FE743
:103AA00057E40E941903181664F5FE01ED5BFF4F01
:103AB000608171818281938120E030E040E251E4B5
:103AC0000E941F02DC01CB01BC01CD010E94490014
:103AD000DC01CB019EAF8DAF0FC080E991E09CAFC0
:103AE0008BAF8BAD9CAD0197F1F79CAF8BAF8DADDC
:103AF0009EAD01979EAF8DAF8DAD9EAD009769F7DE
:103B000016C0FE01FF9660817181828193810E94BF
:103B10004900DC01CB019EAF8DAF8DAD9EAD9AAF5C
:103B200089AF89AD9AAD0197F1F79AAF89AFFE01E0
:103B3000E95BFF4F8081882309F01DC20E94771C3A
:103B4000FE01E95BFF4F8083FE01E95BFF4F80814F
:103B5000882309F079C081E00E94211781EA90E072
:103B60000E94321780E090E0AAE7B4E48DAB9EABF0
:103B7000AFABB8AF6DA97EA98FA998AD20E030E0BA
:103B80004AE755E40E941F02DC01CB0189AB9AABE6
:103B9000ABABBCAB69A97AA98BA99CA920E030E0AA
:103BA00040E85FE30E94790388232CF481E090E0F1
:103BB00098AB8FA73FC069A97AA98BA99CA920E0DF
:103BC0003FEF4FE757E40E94190318164CF56DA913
:103BD0007EA98FA998AD20E030E040E251E40E9438
:103BE0001F02DC01CB01BC01CD010E944900DC01B8
:103BF000CB0198AB8FA70FC080E991E09EA78DA75E
:103C00008DA59EA50197F1F79EA78DA78FA598A9D1
:103C1000019798AB8FA78FA598A9009769F714C053
:103C200069A97AA98BA99CA90E944900DC01CB0152
:103C300098AB8FA78FA598A99CA78BA78BA59CA5B0
:103C40000197F1F79CA78BA7FE01E95BFF4F8081ED
:103C5000882309F090C181E00E94211780EB90E059
:103C60000E94321780E090E0AAE7B4E48FA398A7FF
:103C7000A9A7BAA76FA178A589A59AA520E030E0E9
:103C80004AE755E40E941F02DC01CB018BA39CA3F1
:103C9000ADA3BEA36BA17CA18DA19EA120E030E0CD
:103CA00040E85FE30E94790388232CF481E090E0F0
:103CB0009AA389A33FC06BA17CA18DA19EA120E006
:103CC0003FEF4FE757E40E94190318164CF56FA118
:103CD00078A589A59AA520E030E040E251E40E9451
:103CE0001F02DC01CB01BC01CD010E944900DC01B7
:103CF000CB019AA389A30FC080E991E098A38F8F8D
:103D00008F8D98A10197F1F798A38F8F89A19AA120
:103D100001979AA389A389A19AA1009769F714C072
:103D20006BA17CA18DA19EA10E944900DC01CB0169
:103D30009AA389A389A19AA19E8F8D8F8D8D9E8D27
:103D40000197F1F79E8F8D8F0E948A1CFE01E95B1F
:103D5000FF4F8083FE01E95BFF4F8081882309F0DC
:103D600079C081E00E9421178CEB90E00E9432170D
:103D700080E090E0AAE7B4E4898F9A8FAB8FBC8F84
:103D8000698D7A8D8B8D9C8D20E030E04AE755E47B
:103D90000E941F02DC01CB018D8B9E8BAF8BB88FF5
:103DA0006D897E898F89988D20E030E040E85FE35F
:103DB0000E94790388232CF481E090E09C8B8B8B0C
:103DC0003FC06D897E898F89988D20E03FEF4FE756
:103DD00057E40E94190318164CF5698D7A8D8B8D66
:103DE0009C8D20E030E040E251E40E941F02DC01A3
:103DF000CB01BC01CD010E944900DC01CB019C8BB1
:103E00008B8B0FC080E991E09A8B898B89899A8985
:103E10000197F1F79A8B898B8B899C8901979C8BF1
:103E20008B8B8B899C89009769F714C06D897E897B
:103E30008F89988D0E944900DC01CB019C8B8B8B74
:103E40008B899C89988B8F878F8598890197F1F74B
:103E5000988B8F87FE01E95BFF4F8081882309F0F3
:103E60008AC0FE01E85BFF4F80810E94B51CFE0105
:103E7000E95BFF4F8083FE01E95BFF4F8081882370
:103E800009F079C081E00E94211789EC90E00E943E
:103E9000321780E090E0AAE7B4E48B879C87AD8777
:103EA000BE876B857C858D859E8520E030E04AE766
:103EB00055E40E941F02DC01CB018F839887A987FC
:103EC000BA876F81788589859A8520E030E040E85F
:103ED0005FE30E94790388232CF481E090E09E83C5
:103EE0008D833FC06F81788589859A8520E03FEF7B
:103EF0004FE757E40E94190318164CF56B857C8533
:103F00008D859E8520E030E040E251E40E941F0252
:103F1000DC01CB01BC01CD010E944900DC01CB01D9
:103F20009E838D830FC080E991E09C838B838B817E
:103F30009C810197F1F79C838B838D819E810197F2
:103F40009E838D838D819E81009769F714C06F8158
:103F5000788589859A850E944900DC01CB019E8382
:103F60008D838D819E819A83898389819A8101972E
:103F7000F1F79A838983FE01E95BFF4F8081C85B7B
:103F8000DF4F0FB6F894DEBF0FBECDBFCF91DF91EC
:103F90001F910F910895DF93CF93CDB7DEB70E94A5
:103FA000B21A81E00E94C40680E00E94C40683E049
:103FB0000E94C40683E00E94C40680E00E94C406FA
:103FC00087E00E94C406809131038B30E0F380913A
:103FD0003103882F90E0FC01EC5CFC4F10820E94C2
:103FE000CB1A80913D03CF91DF910895DF93CF935A
:103FF000CDB7DEB762970FB6F894DEBF0FBECDBF68
:10400000988B8F877A8B698B0E94B21A81E00E940D
:10401000C40680E00E94C40688E00E94C40684E0D2
:104020000E94C40681E00E94C40680E00E94C4068B
:104030008F850E94C40680E00E94C40689890E9480
:10404000C40680E00E94C4069F858989890F825F2B
:104050000E94C406809131038F30E0F380913103D8
:10406000882F90E0FC01EC5CFC4F108281E00E9404
:10407000211780913D03882309F080C087ED90E0EF
:104080000E94321780913F03882F90E0A0E0B0E0BB
:10409000BC01CD010E94CA1780E090E0AAE7B4E419
:1040A0008B879C87AD87BE876B857C858D859E853C
:1040B00020E030E04AE755E40E941F02DC01CB011A
:1040C0008F839887A987BA876F81788589859A8534
:1040D00020E030E040E85FE30E94790388232CF47D
:1040E00081E090E09E838D833FC06F8178858985D4
:1040F0009A8520E03FEF4FE757E40E941903181616
:104100004CF56B857C858D859E8520E030E040E216
:1041100051E40E941F02DC01CB01BC01CD010E94D1
:104120004900DC01CB019E838D830FC080E991E0C3
:104130009C838B838B819C810197F1F79C838B837C
:104140008D819E8101979E838D838D819E810097B5
:1041500069F714C06F81788589859A850E94490026
:10416000DC01CB019E838D838D819E819A8389831F
:1041700089819A810197F1F79A8389830E94CB1AEA
:1041800080913D0362960FB6F894DEBF0FBECDBF9F
:10419000CF91DF910895DF93CF93CDB7DEB7AF977F
:1041A0000FB6F894DEBF0FBECDBF9DA78CA77FA72B
:1041B0006EA781E00E9421178CED90E00E943217DB
:1041C0000E945F1B8BA78BA5882309F079C081E033
:1041D0000E94211783E990E00E94321780E090E06E
:1041E000AAEFB3E48FA398A7A9A7BAA76FA178A550
:1041F00089A59AA520E030E04AE755E40E941F0215
:10420000DC01CB018BA39CA3ADA3BEA36BA17CA1BE
:104210008DA19EA120E030E040E85FE30E94790399
:1042200088232CF481E090E09AA389A33FC06BA17E
:104230007CA18DA19EA120E03FEF4FE757E40E94B3
:10424000190318164CF56FA178A589A59AA520E049
:1042500030E040E251E40E941F02DC01CB01BC01CE
:10426000CD010E944900DC01CB019AA389A30FC0B4
:1042700080E991E098A38F8F8F8D98A10197F1F736
:1042800098A38F8F89A19AA101979AA389A389A145
:104290009AA1009769F714C06BA17CA18DA19EA182
:1042A0000E944900DC01CB019AA389A389A19AA1AC
:1042B0009E8F8D8F8D8D9E8D0197F1F79E8F8D8FA7
:1042C0008BA5882309F0FEC081E00E94211789EEAA
:1042D00090E00E94321780E090E0AAEFB3E4898F6B
:1042E0009A8FAB8FBC8F698D7A8D8B8D9C8D20E0E2
:1042F00030E04AE755E40E941F02DC01CB018D8BC0
:104300009E8BAF8BB88F6D897E898F89988D20E0C9
:1043100030E040E85FE30E94790388232CF481E0D9
:1043200090E09C8B8B8B3FC06D897E898F89988DA7
:1043300020E03FEF4FE757E40E94190318164CF5B1
:10434000698D7A8D8B8D9C8D20E030E040E251E4C8
:104350000E941F02DC01CB01BC01CD010E9449007B
:10436000DC01CB019C8B8B8B0FC080E991E09A8B99
:10437000898B89899A890197F1F79A8B898B8B8927
:104380009C8901979C8B8B8B8B899C89009769F703
:1043900014C06D897E898F89988D0E944900DC0147
:1043A000CB019C8B8B8B8B899C89988B8F878F857E
:1043B00098890197F1F7988B8F878CA59DA52EA5DD
:1043C0003FA5B9010E94F61F8BA78BA5882309F092
:1043D00079C081E00E94211785EF90E00E9432179A
:1043E00080E090E0AAEFB3E48B879C87AD87BE871F
:1043F0006B857C858D859E8520E030E04AE755E41D
:104400000E941F02DC01CB018F839887A987BA879E
:104410006F81788589859A8520E030E040E85FE308
:104420000E94790388232CF481E090E09E838D83A1
:104430003FC06F81788589859A8520E03FEF4FE7FF
:1044400057E40E94190318164CF56B857C858D8501
:104450009E8520E030E040E251E40E941F02DC0132
:10446000CB01BC01CD010E944900DC01CB019E8340
:104470008D830FC080E991E09C838B838B819C812D
:104480000197F1F79C838B838D819E8101979E8399
:104490008D838D819E81009769F714C06F81788527
:1044A00089859A850E944900DC01CB019E838D831A
:1044B0008D819E819A83898389819A810197F1F701
:1044C0009A8389838BA5AF960FB6F894DEBF0FBE93
:1044D000CDBFCF91DF910895DF93CF930F92CDB7EA
:1044E000DEB789830E94B21A81E00E94C40680E090
:1044F0000E94C40686E00E94C40687E00E94C406AB
:1045000082E00E94C40680E00E94C40689810E9465
:10451000C40680E00E94C4068981805F0E94C406B0
:10452000809131038B30E0F380913103882F90E04C
:10453000FC01EC5CFC4F10820E94CB1A80913D0381
:104540000F90CF91DF910895DF93CF93CDB7DEB772
:10455000AC970FB6F894DEBF0FBECDBF8CA70E94FC
:104560005F1B8BA78BA5882309F079C081E00E948F
:1045700021178CEF90E00E94321780E090E0AAEFC4
:10458000B3E48FA398A7A9A7BAA76FA178A589A517
:104590009AA520E030E04AE755E40E941F02DC01C2
:1045A000CB018BA39CA3ADA3BEA36BA17CA18DA1CA
:1045B0009EA120E030E040E85FE30E947903882379
:1045C0002CF481E090E09AA389A33FC06BA17CA169
:1045D0008DA19EA120E03FEF4FE757E40E94190311
:1045E00018164CF56FA178A589A59AA520E030E0B2
:1045F00040E251E40E941F02DC01CB01BC01CD016D
:104600000E944900DC01CB019AA389A30FC080E975
:1046100091E098A38F8F8F8D98A10197F1F798A3C0
:104620008F8F89A19AA101979AA389A389A19AA1A1
:10463000009769F714C06BA17CA18DA19EA10E9477
:104640004900DC01CB019AA389A389A19AA19E8F7D
:104650008D8F8D8D9E8D0197F1F79E8F8D8F8BA500
:10466000882309F005C18CA50E946C228BA78BA51D
:10467000882309F079C081E00E94211786E091E04B
:104680000E94321780E090E0AAEFB3E4898F9A8FFE
:10469000AB8FBC8F698D7A8D8B8D9C8D20E030E047
:1046A0004AE755E40E941F02DC01CB018D8B9E8BF3
:1046B000AF8BB88F6D897E898F89988D20E030E02F
:1046C00040E85FE30E94790388232CF481E090E0C6
:1046D0009C8B8B8B3FC06D897E898F89988D20E064
:1046E0003FEF4FE757E40E94190318164CF5698D08
:1046F0007A8D8B8D9C8D20E030E040E251E40E9469
:104700001F02DC01CB01BC01CD010E944900DC018C
:10471000CB019C8B8B8B0FC080E991E09A8B898BAE
:1047200089899A890197F1F79A8B898B8B899C8962
:1047300001979C8B8B8B8B899C89009769F714C0A0
:104740006D897E898F89988D0E944900DC01CB019B
:104750009C8B8B8B8B899C89988B8F878F85988975
:104760000197F1F7988B8F878BA5882309F080C07C
:104770000E94CB1F8BA78BA5882309F079C081E00D
:104780000E94211783E191E00E94321780E090E0BF
:10479000AAEFB3E48B879C87AD87BE876B857C854A
:1047A0008D859E8520E030E04AE755E40E941F0297
:1047B000DC01CB018F839887A987BA876F817885C1
:1047C00089859A8520E030E040E85FE30E94790324
:1047D00088232CF481E090E09E838D833FC06F811D
:1047E000788589859A8520E03FEF4FE757E40E945E
:1047F000190318164CF56B857C858D859E8520E008
:1048000030E040E251E40E941F02DC01CB01BC0118
:10481000CD010E944900DC01CB019E838D830FC036
:1048200080E991E09C838B838B819C810197F1F7D8
:104830009C838B838D819E8101979E838D838D8147
:104840009E81009769F714C06F81788589859A8564
:104850000E944900DC01CB019E838D838D819E8166
:104860009A83898389819A810197F1F79A83898351
:104870008BA5AC960FB6F894DEBF0FBECDBFCF911F
:10488000DF910895DF93CF93CDB7DEB70E94B21AC0
:1048900081E00E94C40680E00E94C40683E00E947A
:1048A000C4068DE00E94C40680E00E94C40681E137
:1048B0000E94C406809131038B30E0F38091310374
:1048C000882F90E0FC01EC5CFC4F10820E94CB1A18
:1048D00080913D03CF91DF910895DF93CF93CDB7C2
:1048E000DEB781E060EA76E80E941C0BCF91DF9191
:1048F0000895DF93CF9300D000D00F92CDB7DEB7ED
:104900009C838B836D8380EA8A830E94F30B8A8168
:104910000E94DC0B8B81898389810E94DC0B8D8155
:104920000E94DC0B0E94030C0F900F900F900F90D1
:104930000F90CF91DF910895DF93CF9300D000D0F7
:1049400000D0CDB7DEB79C838B837E836D8380EAF6
:104950008A830E94F30B8A810E94DC0B8B818983FE
:1049600089810E94DC0B0E94F30B81EA0E94DC0B20
:104970008D819E810E94290C0E94030C26960FB601
:10498000F894DEBF0FBECDBFCF91DF910895DF93C6
:10499000CF93CDB7DEB70E94DF0E0E946D240E9438
:1049A000A01A81E291E00E94321781E060E00E944B
:1049B000D21880E090E00E94B325CF91DF91089556
:1049C000DF93CF93CDB7DEB762970FB6F894DEBF13
:1049D0000FBECDBF9A8B898B1F8688C08F85882F8D
:1049E00090E09E01205F3F4FB9010E949C248F857B
:1049F000282F30E089899A89FC01E20FF31F88890A
:104A0000808380E090E0A8ECB3E48B879C87AD873F
:104A1000BE876B857C858D859E8520E030E04AE7EA
:104A200055E40E941F02DC01CB018F839887A98780
:104A3000BA876F81788589859A8520E030E040E8E3
:104A40005FE30E94790388232CF481E090E09E8349
:104A50008D833FC06F81788589859A8520E03FEFFF
:104A60004FE757E40E94190318164CF56B857C85B7
:104A70008D859E8520E030E040E251E40E941F02D7
:104A8000DC01CB01BC01CD010E944900DC01CB015E
:104A90009E838D830FC080E991E09C838B838B8103
:104AA0009C810197F1F79C838B838D819E81019777
:104AB0009E838D838D819E81009769F714C06F81DD
:104AC000788589859A850E944900DC01CB019E8307
:104AD0008D838D819E819A83898389819A810197B3
:104AE000F1F79A8389838F858F5F8F878F858430D5
:104AF00008F474CF62960FB6F894DEBF0FBECDBF38
:104B0000CF91DF910895DF93CF9300D000D00F9223
:104B1000CDB7DEB79B838A837D836C830E94401967
:104B2000898389818823B1F0EC81FD818081282FE0
:104B300030E08A819B81FC01E20FF31F8981808331
:104B4000EC81FD8180818F5FEC81FD818083898193
:104B50000E94101789810F900F900F900F900F9067
:104B6000CF91DF910895DF93CF9300D000D0CDB7E0
:104B7000DEB79A838983E981FA818081282F30E02A
:104B80003C832B838B819C818230910509F447C043
:104B90002B813C812330310554F48B819C8100971B
:104BA000B9F02B813C8121303105F9F05EC08B8159
:104BB0009C818430910531F12B813C812430310579
:104BC0000CF447C08B819C8185309105A9F14DC0C3
:104BD00081E00E948E1383E00E94CD1380E00E944A
:104BE000CD1382E00E94CD1340C083E00E948E135B
:104BF00081E00E94CD1380E00E94CD1382E00E94EC
:104C0000CD1333C083E00E948E1381E00E94CD1348
:104C100080E00E94CD1382E00E94CD1326C080E088
:104C20000E948E1383E00E94CD1381E00E94CD1379
:104C300082E00E94CD1319C080E00E948E1383E0B1
:104C40000E94CD1381E00E94CD1382E00E94CD131B
:104C50000CC082E00E948E1380E00E94CD1383E09E
:104C60000E94CD1381E00E94CD130F900F900F9002
:104C70000F90CF91DF910895DF93CF93CDB7DEB73B
:104C8000A0970FB6F894DEBF0FBECDBF8D8F7F8F7C
:104C90006E8FEE8DFF8D8081863011F418A261C178
:104CA0008D8D8F32A9F4EE8DFF8D10828E8D9F8DAC
:104CB0000E94B32581E00E94211781E291E00E94C9
:104CC000321781E060E00E94D21881E088A349C1D8
:104CD0008D8D8A32B1F4EE8DFF8D81E080838E8DD3
:104CE0009F8D0E94B32581E00E94211781E391E00E
:104CF0000E94321781E060E00E94D21881E088A310
:104D000030C18D8D8B3209F08BC0EE8DFF8D84E02C
:104D1000808381E00E94211785E491E00E94321790
:104D200080E090E0AAEFB4E4898F9A8FAB8FBC8FBC
:104D3000698D7A8D8B8D9C8D20E030E04AE755E4BB
:104D40000E941F02DC01CB018D8B9E8BAF8BB88F35
:104D50006D897E898F89988D20E030E040E85FE39F
:104D60000E94790388232CF481E090E09C8B8B8B4C
:104D70003FC06D897E898F89988D20E03FEF4FE796
:104D800057E40E94190318164CF5698D7A8D8B8DA6
:104D90009C8D20E030E040E251E40E941F02DC01E3
:104DA000CB01BC01CD010E944900DC01CB019C8BF1
:104DB0008B8B0FC080E991E09A8B898B89899A89C6
:104DC0000197F1F79A8B898B8B899C8901979C8B32
:104DD0008B8B8B899C89009769F714C06D897E89BC
:104DE0008F89988D0E944900DC01CB019C8B8B8BB5
:104DF0008B899C89988B8F878F8598890197F1F78C
:104E0000988B8F8781E00E94211781E291E00E94B8
:104E1000321781E060E00E94D21881E088A3A1C02F
:104E20008D8D833671F481E00E94211781E291E03B
:104E30000E94321781E060E00E94D21881E088A3CE
:104E400090C08D8D8D3209F08BC0EE8DFF8D85E089
:104E5000808381E00E94211784E591E00E9432174F
:104E600080E090E0AAEFB4E48B879C87AD87BE8793
:104E70006B857C858D859E8520E030E04AE755E492
:104E80000E941F02DC01CB018F839887A987BA8714
:104E90006F81788589859A8520E030E040E85FE37E
:104EA0000E94790388232CF481E090E09E838D8317
:104EB0003FC06F81788589859A8520E03FEF4FE775
:104EC00057E40E94190318164CF56B857C858D8577
:104ED0009E8520E030E040E251E40E941F02DC01A8
:104EE000CB01BC01CD010E944900DC01CB019E83B6
:104EF0008D830FC080E991E09C838B838B819C81A3
:104F00000197F1F79C838B838D819E8101979E830E
:104F10008D838D819E81009769F714C06F8178859C
:104F200089859A850E944900DC01CB019E838D838F
:104F30008D819E819A83898389819A810197F1F776
:104F40009A83898381E00E94211781E291E00E9487
:104F5000321781E060E00E94D21881E088A301C08E
:104F600018A288A1A0960FB6F894DEBF0FBECDBFE1
:104F7000CF91DF910895DF93CF9300D0CDB7DEB707
:104F800089838981843019F481E08A8301C01A827F
:104F90008A810F900F90CF91DF910895DF93CF9387
:104FA00000D000D000D0CDB7DEB79B838A837D834D
:104FB0006C83198219C08981282F30E08A819B81F6
:104FC000FC01E20FF31F40818981282F30E08C81A2
:104FD0009D81FC01E20FF31F8081481711F01E82B2
:104FE00008C089818F5F89838981843020F381E0C3
:104FF0008E838E8126960FB6F894DEBF0FBECDBF8E
:10500000CF91DF910895DF93CF93CDB7DEB72E9781
:105010000FB6F894DEBF0FBECDBF85E261E00E94FF
:10502000730C80E090E4ACE1B6E48B879C87AD879D
:10503000BE876B857C858D859E8520E030E04AE7C4
:1050400055E40E941F02DC01CB018F839887A9875A
:10505000BA876F81788589859A8520E030E040E8BD
:105060005FE30E94790388232CF481E090E09E8323
:105070008D833FC06F81788589859A8520E03FEFD9
:105080004FE757E40E94190318164CF56B857C8591
:105090008D859E8520E030E040E251E40E941F02B1
:1050A000DC01CB01BC01CD010E944900DC01CB0138
:1050B0009E838D830FC080E991E09C838B838B81DD
:1050C0009C810197F1F79C838B838D819E81019751
:1050D0009E838D838D819E81009769F714C06F81B7
:1050E000788589859A850E944900DC01CB019E83E1
:1050F0008D838D819E819A83898389819A8101978D
:10510000F1F79A83898385E260E00E94730C81E065
:105110000E94211781E291E00E94321781E060E055
:105120000E94D2182E960FB6F894DEBF0FBECDBFE8
:10513000CF91DF910895DF93CF93CDB7DEB781E0B4
:105140000E94211788E691E00E943217CF91DF91EB
:105150000895DF93CF93CDB7DEB7E9970FB6F894F4
:10516000DEBF0FBECDBF81E060E00E94D2188FE6A7
:1051700091E00E9432179E01275C3F4F80E590E04E
:10518000B9010E949C2489AD882F90E0A0E0B0E096
:10519000BC01CD010E94CA1786E791E00E94321738
:1051A00080E090E0A0E8BFE38DAB9EABAFABB8AFC3
:1051B0006DA97EA98FA998AD20E030E04AE755E4BB
:1051C0000E941F02DC01CB0189AB9AABABABBCAB3D
:1051D00069A97AA98BA99CA920E030E040E85FE3A7
:1051E0000E94790388232CF481E090E098AB8FA78C
:1051F0003FC069A97AA98BA99CA920E03FEF4FE79E
:1052000057E40E94190318164CF56DA97EA98FA9C1
:1052100098AD20E030E040E251E40E941F02DC0142
:10522000CB01BC01CD010E944900DC01CB0198AB50
:105230008FA70FC080E991E09EA78DA78DA59EA5A1
:105240000197F1F79EA78DA78FA598A9019798AB15
:105250008FA78FA598A9009769F714C069A97AA9A3
:105260008BA99CA90E944900DC01CB0198AB8FA7B8
:105270008FA598A99CA78BA78BA59CA50197F1F753
:105280009CA78BA79E01275C3F4F80E690E0B90169
:105290000E949C2489AD882F90E0A0E0B0E0BC0182
:1052A000CD010E94CA1786E791E00E94321780E084
:1052B00090E0A0E8BFE38FA398A7A9A7BAA76FA122
:1052C00078A589A59AA520E030E04AE755E40E9438
:1052D0001F02DC01CB018BA39CA3ADA3BEA36BA1DA
:1052E0007CA18DA19EA120E030E040E85FE30E9418
:1052F000790388232CF481E090E09AA389A33FC02E
:105300006BA17CA18DA19EA120E03FEF4FE757E468
:105310000E94190318164CF56FA178A589A59AA5C6
:1053200020E030E040E251E40E941F02DC01CB01AA
:10533000BC01CD010E944900DC01CB019AA389A3E5
:105340000FC080E991E098A38F8F8F8D98A101976E
:10535000F1F798A38F8F89A19AA101979AA389A3A6
:1053600089A19AA1009769F714C06BA17CA18DA1B6
:105370009EA10E944900DC01CB019AA389A389A1C7
:105380009AA19E8F8D8F8D8D9E8D0197F1F79E8FA7
:105390008D8F9E01275C3F4F82E590E0B9010E940E
:1053A0009C2489AD882F90E0A0E0B0E0BC01CD0145
:1053B0000E94CA1788E791E00E94321780E090E0CF
:1053C000A0E8BFE3898F9A8FAB8FBC8F698D7A8DF0
:1053D0008B8D9C8D20E030E04AE755E40E941F024F
:1053E000DC01CB018D8B9E8BAF8BB88F6D897E8955
:1053F0008F89988D20E030E040E85FE30E947903D8
:1054000088232CF481E090E09C8B8B8B3FC06D89CE
:105410007E898F89988D20E03FEF4FE757E40E9407
:10542000190318164CF5698D7A8D8B8D9C8D20E0B3
:1054300030E040E251E40E941F02DC01CB01BC01DC
:10544000CD010E944900DC01CB019C8B8B8B0FC0EE
:1054500080E991E09A8B898B89899A890197F1F784
:105460009A8B898B8B899C8901979C8B8B8B8B89E1
:105470009C89009769F714C06D897E898F89988D02
:105480000E944900DC01CB019C8B8B8B8B899C8912
:10549000988B8F878F8598890197F1F7988B8F87E5
:1054A0009E01275C3F4F83E590E0B9010E949C2458
:1054B00089AD882329F48AE791E00E94321707C05A
:1054C00089AD813021F48DE791E00E94321780E0B0
:1054D00090E0A0E8BFE38B879C87AD87BE876B8594
:1054E0007C858D859E8520E030E04AE755E40E946A
:1054F0001F02DC01CB018F839887A987BA876F8150
:10550000788589859A8520E030E040E85FE30E9455
:10551000790388232CF481E090E09E838D833FC043
:105520006F81788589859A8520E03FEF4FE757E4C2
:105530000E94190318164CF56B857C858D859E8518
:1055400020E030E040E251E40E941F02DC01CB0188
:10555000BC01CD010E944900DC01CB019E838D83FB
:105560000FC080E991E09C838B838B819C810197A4
:10557000F1F79C838B838D819E8101979E838D8320
:105580008D819E81009769F714C06F817885898528
:105590009A850E944900DC01CB019E838D838D8119
:1055A0009E819A83898389819A810197F1F79A83F1
:1055B0008983E9960FB6F894DEBF0FBECDBFCF91B9
:1055C000DF910895DF93CF93CDB7DEB76D970FB618
:1055D000F894DEBF0FBECDBF0E9485102C8B3D8B93
:1055E0004E8B5F8B688FCE010F969A8F898FFE014D
:1055F0007496FC8FEB8FF5E0FD8FEB8DFC8D0080BA
:105600008B8D9C8D01969C8F8B8FE98DFA8D0082FE
:10561000898D9A8D01969A8F898F9D8D91509D8F3E
:10562000ED8DEE2351F782E060E00E94D21880E811
:1056300091E00E9432178F85882F90E0A0E0B0E0C3
:10564000BC01CD010E94CA1780E20E941017888910
:10565000882F90E0A0E0B0E0BC01CD010E94CA1705
:1056600080E20E9410178989882F90E0A0E0B0E0C6
:10567000BC01CD010E94CA1780E20E9410178B89DD
:105680008C3009F081C08A89882329F48AE791E067
:105690000E94321707C08A89813021F48DE791E09A
:1056A0000E94321780E090E0A8E4B2E48B879C87E8
:1056B000AD87BE876B857C858D859E8520E030E03B
:1056C0004AE755E40E941F02DC01CB018F839887D3
:1056D000A987BA876F81788589859A8520E030E02F
:1056E00040E85FE30E94790388232CF481E090E096
:1056F0009E838D833FC06F81788589859A8520E060
:105700003FEF4FE757E40E94190318164CF56B85DD
:105710007C858D859E8520E030E040E251E40E944A
:105720001F02DC01CB01BC01CD010E944900DC015C
:10573000CB019E838D830FC080E991E09C838B8396
:105740008B819C810197F1F79C838B838D819E8156
:1057500001979E838D838D819E81009769F714C088
:105760006F81788589859A850E944900DC01CB018B
:105770009E838D838D819E819A83898389819A817D
:105780000197F1F79A8389836D960FB6F894DEBF7F
:105790000FBECDBFCF91DF910895DF93CF93CDB7EB
:1057A000DEB761970FB6F894DEBF0FBECDBF0E9483
:1057B00028122E833F83488759876A879E012F5F6F
:1057C0003F4F3E872D87CE010696988B8F8795E0B9
:1057D000998BEF85F88900802F8538892F5F3F4F9F
:1057E000388B2F87ED85FE8500822D853E852F5FC6
:1057F0003F4F3E872D8739893150398B89898823DE
:1058000041F78981E82FF0E0FC87EB872B853C8509
:1058100024303105A1F18B859C858530910584F478
:10582000EB85FC85E230F10501F12B853C852330C9
:10583000310504F58B859C858130910589F032C056
:10584000EB85FC85E630F10521F12B853C85263082
:105850003105D4F08B859C8587309105F9F022C005
:1058600086E891E00E9432171DC08BE891E00E940B
:10587000321718C080E991E00E94321713C086E900
:1058800091E00E9432170EC08EE991E00E9432171B
:1058900009C085EA91E00E94321704C08AEA91E0CB
:1058A0000E9432178A81882F90E0A0E0B0E0BC010E
:1058B000CD010E94CA1780E20E9410178B81882FA9
:1058C00090E0A0E0B0E0BC01CD010E94CA1780E2E8
:1058D0000E9410178C819D81CC01A0E0B0E0BC013A
:1058E000CD010E94CA1780E20E94101761960FB680
:1058F000F894DEBF0FBECDBFCF91DF9108950F9317
:105900001F93DF93CF93CDB7DEB7C356D0400FB60A
:10591000F894DEBF0FBECDBF0E948510FE01E65A8F
:10592000FF4F2083FE01E55AFF4F3083FE01E45A0A
:10593000FF4F4083FE01E35AFF4F5083FE01E25ABE
:10594000FF4F6083CE018B5A9F4F9E01265A3F4FD7
:10595000A1969FAF8EAFA197A3963FAF2EAFA3970F
:1059600085E0A4968FAFA497A396EEADFFADA39765
:105970000080A3968EAD9FADA3970196A3969FAF8F
:105980008EAFA397A196EEADFFADA1970082A19631
:105990008EAD9FADA1970196A1969FAF8EAFA197B7
:1059A000A4969FADA4979150A4969FAFA497A49658
:1059B000EFADA497EE23C1F6FE01EF5AFF4F80E052
:1059C00090E0A0E0B0E480839183A283B3838E0152
:1059D000035B1F4FFE01EF5AFF4F6081718182818F
:1059E000938120E030E04AE755E40E941F02DC0189
:1059F000CB01F80180839183A283B383FE01E35B33
:105A0000FF4F608171818281938120E030E040E826
:105A10005FE30E947903882344F4FE01E55BFF4FB6
:105A200081E090E09183808364C0FE01E35BFF4FDF
:105A3000608171818281938120E03FEF4FE757E4DD
:105A40000E94190318160CF043C0FE01EF5AFF4FD5
:105A5000608171818281938120E030E040E251E4F5
:105A60000E941F02DC01CB018E01055B1F4FBC01B0
:105A7000CD010E944900DC01CB01F80191838083B4
:105A80001FC0FE01E75BFF4F80E991E091838083B7
:105A9000FE01E75BFF4F808191810197F1F7FE01E5
:105AA000E75BFF4F91838083DE01A55BBF4FFE0163
:105AB000E55BFF4F80819181019711969C938E93B6
:105AC000FE01E55BFF4F808191810097D1F627C0F1
:105AD0008E01055B1F4FFE01E35BFF4F608171810B
